{
  "_format": "hh-sol-artifact-1",
  "contractName": "NFTMinter",
  "sourceName": "contracts/NFTMinter.sol",
  "abi": [
    {
      "inputs": [],
      "stateMutability": "nonpayable",
      "type": "constructor"
    },
    {
      "anonymous": false,
      "inputs": [
        {
          "indexed": true,
          "internalType": "address",
          "name": "owner",
          "type": "address"
        },
        {
          "indexed": true,
          "internalType": "address",
          "name": "approved",
          "type": "address"
        },
        {
          "indexed": true,
          "internalType": "uint256",
          "name": "tokenId",
          "type": "uint256"
        }
      ],
      "name": "Approval",
      "type": "event"
    },
    {
      "anonymous": false,
      "inputs": [
        {
          "indexed": true,
          "internalType": "address",
          "name": "owner",
          "type": "address"
        },
        {
          "indexed": true,
          "internalType": "address",
          "name": "operator",
          "type": "address"
        },
        {
          "indexed": false,
          "internalType": "bool",
          "name": "approved",
          "type": "bool"
        }
      ],
      "name": "ApprovalForAll",
      "type": "event"
    },
    {
      "anonymous": false,
      "inputs": [
        {
          "indexed": true,
          "internalType": "address",
          "name": "previousOwner",
          "type": "address"
        },
        {
          "indexed": true,
          "internalType": "address",
          "name": "newOwner",
          "type": "address"
        }
      ],
      "name": "OwnershipTransferred",
      "type": "event"
    },
    {
      "anonymous": false,
      "inputs": [
        {
          "indexed": true,
          "internalType": "address",
          "name": "from",
          "type": "address"
        },
        {
          "indexed": true,
          "internalType": "address",
          "name": "to",
          "type": "address"
        },
        {
          "indexed": true,
          "internalType": "uint256",
          "name": "tokenId",
          "type": "uint256"
        }
      ],
      "name": "Transfer",
      "type": "event"
    },
    {
      "inputs": [
        {
          "internalType": "address",
          "name": "to",
          "type": "address"
        },
        {
          "internalType": "uint256",
          "name": "tokenId",
          "type": "uint256"
        }
      ],
      "name": "approve",
      "outputs": [],
      "stateMutability": "nonpayable",
      "type": "function"
    },
    {
      "inputs": [
        {
          "internalType": "address",
          "name": "owner",
          "type": "address"
        }
      ],
      "name": "balanceOf",
      "outputs": [
        {
          "internalType": "uint256",
          "name": "",
          "type": "uint256"
        }
      ],
      "stateMutability": "view",
      "type": "function"
    },
    {
      "inputs": [
        {
          "internalType": "uint256",
          "name": "tokenId",
          "type": "uint256"
        }
      ],
      "name": "burn",
      "outputs": [],
      "stateMutability": "nonpayable",
      "type": "function"
    },
    {
      "inputs": [
        {
          "internalType": "uint256",
          "name": "tokenId",
          "type": "uint256"
        }
      ],
      "name": "getApproved",
      "outputs": [
        {
          "internalType": "address",
          "name": "",
          "type": "address"
        }
      ],
      "stateMutability": "view",
      "type": "function"
    },
    {
      "inputs": [
        {
          "internalType": "address",
          "name": "owner",
          "type": "address"
        },
        {
          "internalType": "address",
          "name": "operator",
          "type": "address"
        }
      ],
      "name": "isApprovedForAll",
      "outputs": [
        {
          "internalType": "bool",
          "name": "",
          "type": "bool"
        }
      ],
      "stateMutability": "view",
      "type": "function"
    },
    {
      "inputs": [
        {
          "internalType": "address",
          "name": "to",
          "type": "address"
        },
        {
          "internalType": "string",
          "name": "uri",
          "type": "string"
        }
      ],
      "name": "mint",
      "outputs": [
        {
          "internalType": "uint256",
          "name": "",
          "type": "uint256"
        }
      ],
      "stateMutability": "nonpayable",
      "type": "function"
    },
    {
      "inputs": [],
      "name": "name",
      "outputs": [
        {
          "internalType": "string",
          "name": "",
          "type": "string"
        }
      ],
      "stateMutability": "view",
      "type": "function"
    },
    {
      "inputs": [],
      "name": "owner",
      "outputs": [
        {
          "internalType": "address",
          "name": "",
          "type": "address"
        }
      ],
      "stateMutability": "view",
      "type": "function"
    },
    {
      "inputs": [
        {
          "internalType": "uint256",
          "name": "tokenId",
          "type": "uint256"
        }
      ],
      "name": "ownerOf",
      "outputs": [
        {
          "internalType": "address",
          "name": "",
          "type": "address"
        }
      ],
      "stateMutability": "view",
      "type": "function"
    },
    {
      "inputs": [],
      "name": "renounceOwnership",
      "outputs": [],
      "stateMutability": "nonpayable",
      "type": "function"
    },
    {
      "inputs": [
        {
          "internalType": "address",
          "name": "from",
          "type": "address"
        },
        {
          "internalType": "address",
          "name": "to",
          "type": "address"
        },
        {
          "internalType": "uint256",
          "name": "tokenId",
          "type": "uint256"
        }
      ],
      "name": "safeTransferFrom",
      "outputs": [],
      "stateMutability": "nonpayable",
      "type": "function"
    },
    {
      "inputs": [
        {
          "internalType": "address",
          "name": "from",
          "type": "address"
        },
        {
          "internalType": "address",
          "name": "to",
          "type": "address"
        },
        {
          "internalType": "uint256",
          "name": "tokenId",
          "type": "uint256"
        },
        {
          "internalType": "bytes",
          "name": "_data",
          "type": "bytes"
        }
      ],
      "name": "safeTransferFrom",
      "outputs": [],
      "stateMutability": "nonpayable",
      "type": "function"
    },
    {
      "inputs": [
        {
          "internalType": "address",
          "name": "operator",
          "type": "address"
        },
        {
          "internalType": "bool",
          "name": "approved",
          "type": "bool"
        }
      ],
      "name": "setApprovalForAll",
      "outputs": [],
      "stateMutability": "nonpayable",
      "type": "function"
    },
    {
      "inputs": [
        {
          "internalType": "bytes4",
          "name": "interfaceId",
          "type": "bytes4"
        }
      ],
      "name": "supportsInterface",
      "outputs": [
        {
          "internalType": "bool",
          "name": "",
          "type": "bool"
        }
      ],
      "stateMutability": "view",
      "type": "function"
    },
    {
      "inputs": [],
      "name": "symbol",
      "outputs": [
        {
          "internalType": "string",
          "name": "",
          "type": "string"
        }
      ],
      "stateMutability": "view",
      "type": "function"
    },
    {
      "inputs": [
        {
          "internalType": "uint256",
          "name": "tokenId",
          "type": "uint256"
        }
      ],
      "name": "tokenURI",
      "outputs": [
        {
          "internalType": "string",
          "name": "",
          "type": "string"
        }
      ],
      "stateMutability": "view",
      "type": "function"
    },
    {
      "inputs": [
        {
          "internalType": "address",
          "name": "from",
          "type": "address"
        },
        {
          "internalType": "address",
          "name": "to",
          "type": "address"
        },
        {
          "internalType": "uint256",
          "name": "tokenId",
          "type": "uint256"
        }
      ],
      "name": "transferFrom",
      "outputs": [],
      "stateMutability": "nonpayable",
      "type": "function"
    },
    {
      "inputs": [
        {
          "internalType": "address",
          "name": "newOwner",
          "type": "address"
        }
      ],
      "name": "transferOwnership",
      "outputs": [],
      "stateMutability": "nonpayable",
      "type": "function"
    }
  ],
  "bytecode": "0x60806040523480156200001157600080fd5b506040518060400160405280600b81526020017f4d696e744e46542d3732310000000000000000000000000000000000000000008152506040518060400160405280600881526020017f4d4e46542d373231000000000000000000000000000000000000000000000000815250816000908051906020019062000096929190620001a6565b508060019080519060200190620000af929190620001a6565b505050620000d2620000c6620000d860201b60201c565b620000e060201b60201c565b620002bb565b600033905090565b6000600760009054906101000a900473ffffffffffffffffffffffffffffffffffffffff16905081600760006101000a81548173ffffffffffffffffffffffffffffffffffffffff021916908373ffffffffffffffffffffffffffffffffffffffff1602179055508173ffffffffffffffffffffffffffffffffffffffff168173ffffffffffffffffffffffffffffffffffffffff167f8be0079c531659141344cd1fd0a4f28419497f9722a3daafe3b4186f6b6457e060405160405180910390a35050565b828054620001b49062000256565b90600052602060002090601f016020900481019282620001d8576000855562000224565b82601f10620001f357805160ff191683800117855562000224565b8280016001018555821562000224579182015b828111156200022357825182559160200191906001019062000206565b5b50905062000233919062000237565b5090565b5b808211156200025257600081600090555060010162000238565b5090565b600060028204905060018216806200026f57607f821691505b602082108114156200028657620002856200028c565b5b50919050565b7f4e487b7100000000000000000000000000000000000000000000000000000000600052602260045260246000fd5b61323980620002cb6000396000f3fe608060405234801561001057600080fd5b50600436106101165760003560e01c8063715018a6116100a2578063b88d4fde11610071578063b88d4fde146102cb578063c87b56dd146102e7578063d0def52114610317578063e985e9c514610347578063f2fde38b1461037757610116565b8063715018a6146102695780638da5cb5b1461027357806395d89b4114610291578063a22cb465146102af57610116565b806323b872dd116100e957806323b872dd146101b557806342842e0e146101d157806342966c68146101ed5780636352211e1461020957806370a082311461023957610116565b806301ffc9a71461011b57806306fdde031461014b578063081812fc14610169578063095ea7b314610199575b600080fd5b6101356004803603810190610130919061217c565b610393565b60405161014291906125eb565b60405180910390f35b610153610475565b6040516101609190612606565b60405180910390f35b610183600480360381019061017e91906121ce565b610507565b6040516101909190612584565b60405180910390f35b6101b360048036038101906101ae9190612140565b61058c565b005b6101cf60048036038101906101ca9190611fe6565b6106a4565b005b6101eb60048036038101906101e69190611fe6565b610704565b005b610207600480360381019061020291906121ce565b610724565b005b610223600480360381019061021e91906121ce565b6107ad565b6040516102309190612584565b60405180910390f35b610253600480360381019061024e9190611f81565b61085f565b6040516102609190612888565b60405180910390f35b610271610917565b005b61027b61099f565b6040516102889190612584565b60405180910390f35b6102996109c9565b6040516102a69190612606565b60405180910390f35b6102c960048036038101906102c491906120b0565b610a5b565b005b6102e560048036038101906102e09190612035565b610a71565b005b61030160048036038101906102fc91906121ce565b610ad3565b60405161030e9190612606565b60405180910390f35b610331600480360381019061032c91906120ec565b610c25565b60405161033e9190612888565b60405180910390f35b610361600480360381019061035c9190611faa565b610c5d565b60405161036e91906125eb565b60405180910390f35b610391600480360381019061038c9190611f81565b610cf1565b005b60007f80ac58cd000000000000000000000000000000000000000000000000000000007bffffffffffffffffffffffffffffffffffffffffffffffffffffffff1916827bffffffffffffffffffffffffffffffffffffffffffffffffffffffff1916148061045e57507f5b5e139f000000000000000000000000000000000000000000000000000000007bffffffffffffffffffffffffffffffffffffffffffffffffffffffff1916827bffffffffffffffffffffffffffffffffffffffffffffffffffffffff1916145b8061046e575061046d82610de9565b5b9050919050565b60606000805461048490612ade565b80601f01602080910402602001604051908101604052809291908181526020018280546104b090612ade565b80156104fd5780601f106104d2576101008083540402835291602001916104fd565b820191906000526020600020905b8154815290600101906020018083116104e057829003601f168201915b5050505050905090565b600061051282610e53565b610551576040517f08c379a0000000000000000000000000000000000000000000000000000000008152600401610548906127e8565b60405180910390fd5b6004600083815260200190815260200160002060009054906101000a900473ffffffffffffffffffffffffffffffffffffffff169050919050565b6000610597826107ad565b90508073ffffffffffffffffffffffffffffffffffffffff168373ffffffffffffffffffffffffffffffffffffffff161415610608576040517f08c379a00000000000000000000000000000000000000000000000000000000081526004016105ff90612848565b60405180910390fd5b8073ffffffffffffffffffffffffffffffffffffffff16610627610ebf565b73ffffffffffffffffffffffffffffffffffffffff161480610656575061065581610650610ebf565b610c5d565b5b610695576040517f08c379a000000000000000000000000000000000000000000000000000000000815260040161068c90612728565b60405180910390fd5b61069f8383610ec7565b505050565b6106b56106af610ebf565b82610f80565b6106f4576040517f08c379a00000000000000000000000000000000000000000000000000000000081526004016106eb90612868565b60405180910390fd5b6106ff83838361105e565b505050565b61071f83838360405180602001604052806000815250610a71565b505050565b61072d816107ad565b73ffffffffffffffffffffffffffffffffffffffff1661074b610ebf565b73ffffffffffffffffffffffffffffffffffffffff16146107a1576040517f08c379a0000000000000000000000000000000000000000000000000000000008152600401610798906126a8565b60405180910390fd5b6107aa816112c5565b50565b6000806002600084815260200190815260200160002060009054906101000a900473ffffffffffffffffffffffffffffffffffffffff169050600073ffffffffffffffffffffffffffffffffffffffff168173ffffffffffffffffffffffffffffffffffffffff161415610856576040517f08c379a000000000000000000000000000000000000000000000000000000000815260040161084d90612768565b60405180910390fd5b80915050919050565b60008073ffffffffffffffffffffffffffffffffffffffff168273ffffffffffffffffffffffffffffffffffffffff1614156108d0576040517f08c379a00000000000000000000000000000000000000000000000000000000081526004016108c790612748565b60405180910390fd5b600360008373ffffffffffffffffffffffffffffffffffffffff1673ffffffffffffffffffffffffffffffffffffffff168152602001908152602001600020549050919050565b61091f610ebf565b73ffffffffffffffffffffffffffffffffffffffff1661093d61099f565b73ffffffffffffffffffffffffffffffffffffffff1614610993576040517f08c379a000000000000000000000000000000000000000000000000000000000815260040161098a90612808565b60405180910390fd5b61099d6000611318565b565b6000600760009054906101000a900473ffffffffffffffffffffffffffffffffffffffff16905090565b6060600180546109d890612ade565b80601f0160208091040260200160405190810160405280929190818152602001828054610a0490612ade565b8015610a515780601f10610a2657610100808354040283529160200191610a51565b820191906000526020600020905b815481529060010190602001808311610a3457829003601f168201915b5050505050905090565b610a6d610a66610ebf565b83836113de565b5050565b610a82610a7c610ebf565b83610f80565b610ac1576040517f08c379a0000000000000000000000000000000000000000000000000000000008152600401610ab890612868565b60405180910390fd5b610acd8484848461154b565b50505050565b6060610ade82610e53565b610b1d576040517f08c379a0000000000000000000000000000000000000000000000000000000008152600401610b14906127c8565b60405180910390fd5b6000600660008481526020019081526020016000208054610b3d90612ade565b80601f0160208091040260200160405190810160405280929190818152602001828054610b6990612ade565b8015610bb65780601f10610b8b57610100808354040283529160200191610bb6565b820191906000526020600020905b815481529060010190602001808311610b9957829003601f168201915b505050505090506000610bc76115a7565b9050600081511415610bdd578192505050610c20565b600082511115610c12578082604051602001610bfa929190612560565b60405160208183030381529060405292505050610c20565b610c1b846115be565b925050505b919050565b6000610c316008611665565b6000610c3d600861167b565b9050610c498482611689565b610c538184611863565b8091505092915050565b6000600560008473ffffffffffffffffffffffffffffffffffffffff1673ffffffffffffffffffffffffffffffffffffffff16815260200190815260200160002060008373ffffffffffffffffffffffffffffffffffffffff1673ffffffffffffffffffffffffffffffffffffffff16815260200190815260200160002060009054906101000a900460ff16905092915050565b610cf9610ebf565b73ffffffffffffffffffffffffffffffffffffffff16610d1761099f565b73ffffffffffffffffffffffffffffffffffffffff1614610d6d576040517f08c379a0000000000000000000000000000000000000000000000000000000008152600401610d6490612808565b60405180910390fd5b600073ffffffffffffffffffffffffffffffffffffffff168173ffffffffffffffffffffffffffffffffffffffff161415610ddd576040517f08c379a0000000000000000000000000000000000000000000000000000000008152600401610dd490612648565b60405180910390fd5b610de681611318565b50565b60007f01ffc9a7000000000000000000000000000000000000000000000000000000007bffffffffffffffffffffffffffffffffffffffffffffffffffffffff1916827bffffffffffffffffffffffffffffffffffffffffffffffffffffffff1916149050919050565b60008073ffffffffffffffffffffffffffffffffffffffff166002600084815260200190815260200160002060009054906101000a900473ffffffffffffffffffffffffffffffffffffffff1673ffffffffffffffffffffffffffffffffffffffff1614159050919050565b600033905090565b816004600083815260200190815260200160002060006101000a81548173ffffffffffffffffffffffffffffffffffffffff021916908373ffffffffffffffffffffffffffffffffffffffff160217905550808273ffffffffffffffffffffffffffffffffffffffff16610f3a836107ad565b73ffffffffffffffffffffffffffffffffffffffff167f8c5be1e5ebec7d5bd14f71427d1e84f3dd0314c0f7b2291e5b200ac8c7c3b92560405160405180910390a45050565b6000610f8b82610e53565b610fca576040517f08c379a0000000000000000000000000000000000000000000000000000000008152600401610fc190612708565b60405180910390fd5b6000610fd5836107ad565b90508073ffffffffffffffffffffffffffffffffffffffff168473ffffffffffffffffffffffffffffffffffffffff16148061101757506110168185610c5d565b5b8061105557508373ffffffffffffffffffffffffffffffffffffffff1661103d84610507565b73ffffffffffffffffffffffffffffffffffffffff16145b91505092915050565b8273ffffffffffffffffffffffffffffffffffffffff1661107e826107ad565b73ffffffffffffffffffffffffffffffffffffffff16146110d4576040517f08c379a00000000000000000000000000000000000000000000000000000000081526004016110cb90612668565b60405180910390fd5b600073ffffffffffffffffffffffffffffffffffffffff168273ffffffffffffffffffffffffffffffffffffffff161415611144576040517f08c379a000000000000000000000000000000000000000000000000000000000815260040161113b906126c8565b60405180910390fd5b61114f8383836118d7565b61115a600082610ec7565b6001600360008573ffffffffffffffffffffffffffffffffffffffff1673ffffffffffffffffffffffffffffffffffffffff16815260200190815260200160002060008282546111aa91906129f4565b925050819055506001600360008473ffffffffffffffffffffffffffffffffffffffff1673ffffffffffffffffffffffffffffffffffffffff1681526020019081526020016000206000828254611201919061296d565b92505081905550816002600083815260200190815260200160002060006101000a81548173ffffffffffffffffffffffffffffffffffffffff021916908373ffffffffffffffffffffffffffffffffffffffff160217905550808273ffffffffffffffffffffffffffffffffffffffff168473ffffffffffffffffffffffffffffffffffffffff167fddf252ad1be2c89b69c2b068fc378daa952ba7f163c4a11628f55a4df523b3ef60405160405180910390a46112c08383836118dc565b505050565b6112ce816118e1565b60006006600083815260200190815260200160002080546112ee90612ade565b905014611315576006600082815260200190815260200160002060006113149190611d65565b5b50565b6000600760009054906101000a900473ffffffffffffffffffffffffffffffffffffffff16905081600760006101000a81548173ffffffffffffffffffffffffffffffffffffffff021916908373ffffffffffffffffffffffffffffffffffffffff1602179055508173ffffffffffffffffffffffffffffffffffffffff168173ffffffffffffffffffffffffffffffffffffffff167f8be0079c531659141344cd1fd0a4f28419497f9722a3daafe3b4186f6b6457e060405160405180910390a35050565b8173ffffffffffffffffffffffffffffffffffffffff168373ffffffffffffffffffffffffffffffffffffffff16141561144d576040517f08c379a0000000000000000000000000000000000000000000000000000000008152600401611444906126e8565b60405180910390fd5b80600560008573ffffffffffffffffffffffffffffffffffffffff1673ffffffffffffffffffffffffffffffffffffffff16815260200190815260200160002060008473ffffffffffffffffffffffffffffffffffffffff1673ffffffffffffffffffffffffffffffffffffffff16815260200190815260200160002060006101000a81548160ff0219169083151502179055508173ffffffffffffffffffffffffffffffffffffffff168373ffffffffffffffffffffffffffffffffffffffff167f17307eab39ab6107e8899845ad3d59bd9653f200f220920489ca2b5937696c318360405161153e91906125eb565b60405180910390a3505050565b61155684848461105e565b611562848484846119fe565b6115a1576040517f08c379a000000000000000000000000000000000000000000000000000000000815260040161159890612628565b60405180910390fd5b50505050565b606060405180602001604052806000815250905090565b60606115c982610e53565b611608576040517f08c379a00000000000000000000000000000000000000000000000000000000081526004016115ff90612828565b60405180910390fd5b60006116126115a7565b90506000815111611632576040518060200160405280600081525061165d565b8061163c84611b95565b60405160200161164d929190612560565b6040516020818303038152906040525b915050919050565b6001816000016000828254019250508190555050565b600081600001549050919050565b600073ffffffffffffffffffffffffffffffffffffffff168273ffffffffffffffffffffffffffffffffffffffff1614156116f9576040517f08c379a00000000000000000000000000000000000000000000000000000000081526004016116f0906127a8565b60405180910390fd5b61170281610e53565b15611742576040517f08c379a000000000000000000000000000000000000000000000000000000000815260040161173990612688565b60405180910390fd5b61174e600083836118d7565b6001600360008473ffffffffffffffffffffffffffffffffffffffff1673ffffffffffffffffffffffffffffffffffffffff168152602001908152602001600020600082825461179e919061296d565b92505081905550816002600083815260200190815260200160002060006101000a81548173ffffffffffffffffffffffffffffffffffffffff021916908373ffffffffffffffffffffffffffffffffffffffff160217905550808273ffffffffffffffffffffffffffffffffffffffff16600073ffffffffffffffffffffffffffffffffffffffff167fddf252ad1be2c89b69c2b068fc378daa952ba7f163c4a11628f55a4df523b3ef60405160405180910390a461185f600083836118dc565b5050565b61186c82610e53565b6118ab576040517f08c379a00000000000000000000000000000000000000000000000000000000081526004016118a290612788565b60405180910390fd5b806006600084815260200190815260200160002090805190602001906118d2929190611da5565b505050565b505050565b505050565b60006118ec826107ad565b90506118fa816000846118d7565b611905600083610ec7565b6001600360008373ffffffffffffffffffffffffffffffffffffffff1673ffffffffffffffffffffffffffffffffffffffff168152602001908152602001600020600082825461195591906129f4565b925050819055506002600083815260200190815260200160002060006101000a81549073ffffffffffffffffffffffffffffffffffffffff021916905581600073ffffffffffffffffffffffffffffffffffffffff168273ffffffffffffffffffffffffffffffffffffffff167fddf252ad1be2c89b69c2b068fc378daa952ba7f163c4a11628f55a4df523b3ef60405160405180910390a46119fa816000846118dc565b5050565b6000611a1f8473ffffffffffffffffffffffffffffffffffffffff16611d42565b15611b88578373ffffffffffffffffffffffffffffffffffffffff1663150b7a02611a48610ebf565b8786866040518563ffffffff1660e01b8152600401611a6a949392919061259f565b602060405180830381600087803b158015611a8457600080fd5b505af1925050508015611ab557506040513d601f19601f82011682018060405250810190611ab291906121a5565b60015b611b38573d8060008114611ae5576040519150601f19603f3d011682016040523d82523d6000602084013e611aea565b606091505b50600081511415611b30576040517f08c379a0000000000000000000000000000000000000000000000000000000008152600401611b2790612628565b60405180910390fd5b805181602001fd5b63150b7a0260e01b7bffffffffffffffffffffffffffffffffffffffffffffffffffffffff1916817bffffffffffffffffffffffffffffffffffffffffffffffffffffffff191614915050611b8d565b600190505b949350505050565b60606000821415611bdd576040518060400160405280600181526020017f30000000000000000000000000000000000000000000000000000000000000008152509050611d3d565b600082905060005b60008214611c0f578080611bf890612b41565b915050600a82611c0891906129c3565b9150611be5565b60008167ffffffffffffffff811115611c51577f4e487b7100000000000000000000000000000000000000000000000000000000600052604160045260246000fd5b6040519080825280601f01601f191660200182016040528015611c835781602001600182028036833780820191505090505b5090505b60008514611d3657600182611c9c91906129f4565b9150600a85611cab9190612b8a565b6030611cb7919061296d565b60f81b818381518110611cf3577f4e487b7100000000000000000000000000000000000000000000000000000000600052603260045260246000fd5b60200101907effffffffffffffffffffffffffffffffffffffffffffffffffffffffffffff1916908160001a905350600a85611d2f91906129c3565b9450611c87565b8093505050505b919050565b6000808273ffffffffffffffffffffffffffffffffffffffff163b119050919050565b508054611d7190612ade565b6000825580601f10611d835750611da2565b601f016020900490600052602060002090810190611da19190611e2b565b5b50565b828054611db190612ade565b90600052602060002090601f016020900481019282611dd35760008555611e1a565b82601f10611dec57805160ff1916838001178555611e1a565b82800160010185558215611e1a579182015b82811115611e19578251825591602001919060010190611dfe565b5b509050611e279190611e2b565b5090565b5b80821115611e44576000816000905550600101611e2c565b5090565b6000611e5b611e56846128c8565b6128a3565b905082815260208101848484011115611e7357600080fd5b611e7e848285612a9c565b509392505050565b6000611e99611e94846128f9565b6128a3565b905082815260208101848484011115611eb157600080fd5b611ebc848285612a9c565b509392505050565b600081359050611ed3816131a7565b92915050565b600081359050611ee8816131be565b92915050565b600081359050611efd816131d5565b92915050565b600081519050611f12816131d5565b92915050565b600082601f830112611f2957600080fd5b8135611f39848260208601611e48565b91505092915050565b600082601f830112611f5357600080fd5b8135611f63848260208601611e86565b91505092915050565b600081359050611f7b816131ec565b92915050565b600060208284031215611f9357600080fd5b6000611fa184828501611ec4565b91505092915050565b60008060408385031215611fbd57600080fd5b6000611fcb85828601611ec4565b9250506020611fdc85828601611ec4565b9150509250929050565b600080600060608486031215611ffb57600080fd5b600061200986828701611ec4565b935050602061201a86828701611ec4565b925050604061202b86828701611f6c565b9150509250925092565b6000806000806080858703121561204b57600080fd5b600061205987828801611ec4565b945050602061206a87828801611ec4565b935050604061207b87828801611f6c565b925050606085013567ffffffffffffffff81111561209857600080fd5b6120a487828801611f18565b91505092959194509250565b600080604083850312156120c357600080fd5b60006120d185828601611ec4565b92505060206120e285828601611ed9565b9150509250929050565b600080604083850312156120ff57600080fd5b600061210d85828601611ec4565b925050602083013567ffffffffffffffff81111561212a57600080fd5b61213685828601611f42565b9150509250929050565b6000806040838503121561215357600080fd5b600061216185828601611ec4565b925050602061217285828601611f6c565b9150509250929050565b60006020828403121561218e57600080fd5b600061219c84828501611eee565b91505092915050565b6000602082840312156121b757600080fd5b60006121c584828501611f03565b91505092915050565b6000602082840312156121e057600080fd5b60006121ee84828501611f6c565b91505092915050565b61220081612a28565b82525050565b61220f81612a3a565b82525050565b60006122208261292a565b61222a8185612940565b935061223a818560208601612aab565b61224381612c77565b840191505092915050565b600061225982612935565b6122638185612951565b9350612273818560208601612aab565b61227c81612c77565b840191505092915050565b600061229282612935565b61229c8185612962565b93506122ac818560208601612aab565b80840191505092915050565b60006122c5603283612951565b91506122d082612c88565b604082019050919050565b60006122e8602683612951565b91506122f382612cd7565b604082019050919050565b600061230b602583612951565b915061231682612d26565b604082019050919050565b600061232e601c83612951565b915061233982612d75565b602082019050919050565b6000612351601f83612951565b915061235c82612d9e565b602082019050919050565b6000612374602483612951565b915061237f82612dc7565b604082019050919050565b6000612397601983612951565b91506123a282612e16565b602082019050919050565b60006123ba602c83612951565b91506123c582612e3f565b604082019050919050565b60006123dd603883612951565b91506123e882612e8e565b604082019050919050565b6000612400602a83612951565b915061240b82612edd565b604082019050919050565b6000612423602983612951565b915061242e82612f2c565b604082019050919050565b6000612446602e83612951565b915061245182612f7b565b604082019050919050565b6000612469602083612951565b915061247482612fca565b602082019050919050565b600061248c603183612951565b915061249782612ff3565b604082019050919050565b60006124af602c83612951565b91506124ba82613042565b604082019050919050565b60006124d2602083612951565b91506124dd82613091565b602082019050919050565b60006124f5602f83612951565b9150612500826130ba565b604082019050919050565b6000612518602183612951565b915061252382613109565b604082019050919050565b600061253b603183612951565b915061254682613158565b604082019050919050565b61255a81612a92565b82525050565b600061256c8285612287565b91506125788284612287565b91508190509392505050565b600060208201905061259960008301846121f7565b92915050565b60006080820190506125b460008301876121f7565b6125c160208301866121f7565b6125ce6040830185612551565b81810360608301526125e08184612215565b905095945050505050565b60006020820190506126006000830184612206565b92915050565b60006020820190508181036000830152612620818461224e565b905092915050565b60006020820190508181036000830152612641816122b8565b9050919050565b60006020820190508181036000830152612661816122db565b9050919050565b60006020820190508181036000830152612681816122fe565b9050919050565b600060208201905081810360008301526126a181612321565b9050919050565b600060208201905081810360008301526126c181612344565b9050919050565b600060208201905081810360008301526126e181612367565b9050919050565b600060208201905081810360008301526127018161238a565b9050919050565b60006020820190508181036000830152612721816123ad565b9050919050565b60006020820190508181036000830152612741816123d0565b9050919050565b60006020820190508181036000830152612761816123f3565b9050919050565b6000602082019050818103600083015261278181612416565b9050919050565b600060208201905081810360008301526127a181612439565b9050919050565b600060208201905081810360008301526127c18161245c565b9050919050565b600060208201905081810360008301526127e18161247f565b9050919050565b60006020820190508181036000830152612801816124a2565b9050919050565b60006020820190508181036000830152612821816124c5565b9050919050565b60006020820190508181036000830152612841816124e8565b9050919050565b600060208201905081810360008301526128618161250b565b9050919050565b600060208201905081810360008301526128818161252e565b9050919050565b600060208201905061289d6000830184612551565b92915050565b60006128ad6128be565b90506128b98282612b10565b919050565b6000604051905090565b600067ffffffffffffffff8211156128e3576128e2612c48565b5b6128ec82612c77565b9050602081019050919050565b600067ffffffffffffffff82111561291457612913612c48565b5b61291d82612c77565b9050602081019050919050565b600081519050919050565b600081519050919050565b600082825260208201905092915050565b600082825260208201905092915050565b600081905092915050565b600061297882612a92565b915061298383612a92565b9250827fffffffffffffffffffffffffffffffffffffffffffffffffffffffffffffffff038211156129b8576129b7612bbb565b5b828201905092915050565b60006129ce82612a92565b91506129d983612a92565b9250826129e9576129e8612bea565b5b828204905092915050565b60006129ff82612a92565b9150612a0a83612a92565b925082821015612a1d57612a1c612bbb565b5b828203905092915050565b6000612a3382612a72565b9050919050565b60008115159050919050565b60007fffffffff0000000000000000000000000000000000000000000000000000000082169050919050565b600073ffffffffffffffffffffffffffffffffffffffff82169050919050565b6000819050919050565b82818337600083830152505050565b60005b83811015612ac9578082015181840152602081019050612aae565b83811115612ad8576000848401525b50505050565b60006002820490506001821680612af657607f821691505b60208210811415612b0a57612b09612c19565b5b50919050565b612b1982612c77565b810181811067ffffffffffffffff82111715612b3857612b37612c48565b5b80604052505050565b6000612b4c82612a92565b91507fffffffffffffffffffffffffffffffffffffffffffffffffffffffffffffffff821415612b7f57612b7e612bbb565b5b600182019050919050565b6000612b9582612a92565b9150612ba083612a92565b925082612bb057612baf612bea565b5b828206905092915050565b7f4e487b7100000000000000000000000000000000000000000000000000000000600052601160045260246000fd5b7f4e487b7100000000000000000000000000000000000000000000000000000000600052601260045260246000fd5b7f4e487b7100000000000000000000000000000000000000000000000000000000600052602260045260246000fd5b7f4e487b7100000000000000000000000000000000000000000000000000000000600052604160045260246000fd5b6000601f19601f8301169050919050565b7f4552433732313a207472616e7366657220746f206e6f6e20455243373231526560008201527f63656976657220696d706c656d656e7465720000000000000000000000000000602082015250565b7f4f776e61626c653a206e6577206f776e657220697320746865207a65726f206160008201527f6464726573730000000000000000000000000000000000000000000000000000602082015250565b7f4552433732313a207472616e736665722066726f6d20696e636f72726563742060008201527f6f776e6572000000000000000000000000000000000000000000000000000000602082015250565b7f4552433732313a20746f6b656e20616c7265616479206d696e74656400000000600082015250565b7f4552433732313a2053656e646572206973206e6f7420746865206f776e657200600082015250565b7f4552433732313a207472616e7366657220746f20746865207a65726f2061646460008201527f7265737300000000000000000000000000000000000000000000000000000000602082015250565b7f4552433732313a20617070726f766520746f2063616c6c657200000000000000600082015250565b7f4552433732313a206f70657261746f7220717565727920666f72206e6f6e657860008201527f697374656e7420746f6b656e0000000000000000000000000000000000000000602082015250565b7f4552433732313a20617070726f76652063616c6c6572206973206e6f74206f7760008201527f6e6572206e6f7220617070726f76656420666f7220616c6c0000000000000000602082015250565b7f4552433732313a2062616c616e636520717565727920666f7220746865207a6560008201527f726f206164647265737300000000000000000000000000000000000000000000602082015250565b7f4552433732313a206f776e657220717565727920666f72206e6f6e657869737460008201527f656e7420746f6b656e0000000000000000000000000000000000000000000000602082015250565b7f45524337323155524953746f726167653a2055524920736574206f66206e6f6e60008201527f6578697374656e7420746f6b656e000000000000000000000000000000000000602082015250565b7f4552433732313a206d696e7420746f20746865207a65726f2061646472657373600082015250565b7f45524337323155524953746f726167653a2055524920717565727920666f722060008201527f6e6f6e6578697374656e7420746f6b656e000000000000000000000000000000602082015250565b7f4552433732313a20617070726f76656420717565727920666f72206e6f6e657860008201527f697374656e7420746f6b656e0000000000000000000000000000000000000000602082015250565b7f4f776e61626c653a2063616c6c6572206973206e6f7420746865206f776e6572600082015250565b7f4552433732314d657461646174613a2055524920717565727920666f72206e6f60008201527f6e6578697374656e7420746f6b656e0000000000000000000000000000000000602082015250565b7f4552433732313a20617070726f76616c20746f2063757272656e74206f776e6560008201527f7200000000000000000000000000000000000000000000000000000000000000602082015250565b7f4552433732313a207472616e736665722063616c6c6572206973206e6f74206f60008201527f776e6572206e6f7220617070726f766564000000000000000000000000000000602082015250565b6131b081612a28565b81146131bb57600080fd5b50565b6131c781612a3a565b81146131d257600080fd5b50565b6131de81612a46565b81146131e957600080fd5b50565b6131f581612a92565b811461320057600080fd5b5056fea26469706673582212203a449f39f8a6e1ab4f4615119a3ddc70f16c52ffc079b0df908ebfe57874bc4664736f6c63430008040033",
  "linkReferences": {},
  "deployedLinkReferences": {}
}