{
  "_format": "hh-sol-artifact-1",
  "contractName": "NFTMinter1155",
  "sourceName": "contracts/NFTMinter1155.sol",
  "abi": [
    {
      "inputs": [
        {
          "internalType": "string",
          "name": "_name",
          "type": "string"
        },
        {
          "internalType": "string",
          "name": "_symbol",
          "type": "string"
        }
      ],
      "stateMutability": "nonpayable",
      "type": "constructor"
    },
    {
      "anonymous": false,
      "inputs": [
        {
          "indexed": true,
          "internalType": "address",
          "name": "account",
          "type": "address"
        },
        {
          "indexed": true,
          "internalType": "address",
          "name": "operator",
          "type": "address"
        },
        {
          "indexed": false,
          "internalType": "bool",
          "name": "approved",
          "type": "bool"
        }
      ],
      "name": "ApprovalForAll",
      "type": "event"
    },
    {
      "anonymous": false,
      "inputs": [
        {
          "indexed": true,
          "internalType": "address",
          "name": "previousOwner",
          "type": "address"
        },
        {
          "indexed": true,
          "internalType": "address",
          "name": "newOwner",
          "type": "address"
        }
      ],
      "name": "OwnershipTransferred",
      "type": "event"
    },
    {
      "anonymous": false,
      "inputs": [
        {
          "indexed": true,
          "internalType": "address",
          "name": "operator",
          "type": "address"
        },
        {
          "indexed": true,
          "internalType": "address",
          "name": "from",
          "type": "address"
        },
        {
          "indexed": true,
          "internalType": "address",
          "name": "to",
          "type": "address"
        },
        {
          "indexed": false,
          "internalType": "uint256[]",
          "name": "ids",
          "type": "uint256[]"
        },
        {
          "indexed": false,
          "internalType": "uint256[]",
          "name": "values",
          "type": "uint256[]"
        }
      ],
      "name": "TransferBatch",
      "type": "event"
    },
    {
      "anonymous": false,
      "inputs": [
        {
          "indexed": true,
          "internalType": "address",
          "name": "operator",
          "type": "address"
        },
        {
          "indexed": true,
          "internalType": "address",
          "name": "from",
          "type": "address"
        },
        {
          "indexed": true,
          "internalType": "address",
          "name": "to",
          "type": "address"
        },
        {
          "indexed": false,
          "internalType": "uint256",
          "name": "id",
          "type": "uint256"
        },
        {
          "indexed": false,
          "internalType": "uint256",
          "name": "value",
          "type": "uint256"
        }
      ],
      "name": "TransferSingle",
      "type": "event"
    },
    {
      "anonymous": false,
      "inputs": [
        {
          "indexed": false,
          "internalType": "string",
          "name": "value",
          "type": "string"
        },
        {
          "indexed": true,
          "internalType": "uint256",
          "name": "id",
          "type": "uint256"
        }
      ],
      "name": "URI",
      "type": "event"
    },
    {
      "inputs": [
        {
          "internalType": "address",
          "name": "account",
          "type": "address"
        },
        {
          "internalType": "uint256",
          "name": "id",
          "type": "uint256"
        }
      ],
      "name": "balanceOf",
      "outputs": [
        {
          "internalType": "uint256",
          "name": "",
          "type": "uint256"
        }
      ],
      "stateMutability": "view",
      "type": "function"
    },
    {
      "inputs": [
        {
          "internalType": "address[]",
          "name": "accounts",
          "type": "address[]"
        },
        {
          "internalType": "uint256[]",
          "name": "ids",
          "type": "uint256[]"
        }
      ],
      "name": "balanceOfBatch",
      "outputs": [
        {
          "internalType": "uint256[]",
          "name": "",
          "type": "uint256[]"
        }
      ],
      "stateMutability": "view",
      "type": "function"
    },
    {
      "inputs": [
        {
          "internalType": "address",
          "name": "to",
          "type": "address"
        },
        {
          "internalType": "string[]",
          "name": "_uri",
          "type": "string[]"
        },
        {
          "internalType": "uint256[]",
          "name": "amount",
          "type": "uint256[]"
        }
      ],
      "name": "batchMint",
      "outputs": [
        {
          "internalType": "uint256[]",
          "name": "",
          "type": "uint256[]"
        }
      ],
      "stateMutability": "nonpayable",
      "type": "function"
    },
    {
      "inputs": [
        {
          "internalType": "uint256",
          "name": "tokenId",
          "type": "uint256"
        },
        {
          "internalType": "uint256",
          "name": "amount",
          "type": "uint256"
        }
      ],
      "name": "burn",
      "outputs": [],
      "stateMutability": "nonpayable",
      "type": "function"
    },
    {
      "inputs": [
        {
          "internalType": "address",
          "name": "account",
          "type": "address"
        },
        {
          "internalType": "address",
          "name": "operator",
          "type": "address"
        }
      ],
      "name": "isApprovedForAll",
      "outputs": [
        {
          "internalType": "bool",
          "name": "",
          "type": "bool"
        }
      ],
      "stateMutability": "view",
      "type": "function"
    },
    {
      "inputs": [
        {
          "internalType": "address",
          "name": "to",
          "type": "address"
        },
        {
          "internalType": "string",
          "name": "_uri",
          "type": "string"
        },
        {
          "internalType": "uint256",
          "name": "amount",
          "type": "uint256"
        }
      ],
      "name": "mint",
      "outputs": [
        {
          "internalType": "uint256",
          "name": "",
          "type": "uint256"
        }
      ],
      "stateMutability": "nonpayable",
      "type": "function"
    },
    {
      "inputs": [],
      "name": "name",
      "outputs": [
        {
          "internalType": "string",
          "name": "",
          "type": "string"
        }
      ],
      "stateMutability": "view",
      "type": "function"
    },
    {
      "inputs": [],
      "name": "owner",
      "outputs": [
        {
          "internalType": "address",
          "name": "",
          "type": "address"
        }
      ],
      "stateMutability": "view",
      "type": "function"
    },
    {
      "inputs": [],
      "name": "renounceOwnership",
      "outputs": [],
      "stateMutability": "nonpayable",
      "type": "function"
    },
    {
      "inputs": [
        {
          "internalType": "address",
          "name": "from",
          "type": "address"
        },
        {
          "internalType": "address",
          "name": "to",
          "type": "address"
        },
        {
          "internalType": "uint256[]",
          "name": "ids",
          "type": "uint256[]"
        },
        {
          "internalType": "uint256[]",
          "name": "amounts",
          "type": "uint256[]"
        },
        {
          "internalType": "bytes",
          "name": "data",
          "type": "bytes"
        }
      ],
      "name": "safeBatchTransferFrom",
      "outputs": [],
      "stateMutability": "nonpayable",
      "type": "function"
    },
    {
      "inputs": [
        {
          "internalType": "address",
          "name": "from",
          "type": "address"
        },
        {
          "internalType": "address",
          "name": "to",
          "type": "address"
        },
        {
          "internalType": "uint256",
          "name": "id",
          "type": "uint256"
        },
        {
          "internalType": "uint256",
          "name": "amount",
          "type": "uint256"
        },
        {
          "internalType": "bytes",
          "name": "data",
          "type": "bytes"
        }
      ],
      "name": "safeTransferFrom",
      "outputs": [],
      "stateMutability": "nonpayable",
      "type": "function"
    },
    {
      "inputs": [
        {
          "internalType": "address",
          "name": "operator",
          "type": "address"
        },
        {
          "internalType": "bool",
          "name": "approved",
          "type": "bool"
        }
      ],
      "name": "setApprovalForAll",
      "outputs": [],
      "stateMutability": "nonpayable",
      "type": "function"
    },
    {
      "inputs": [
        {
          "internalType": "string",
          "name": "newuri",
          "type": "string"
        }
      ],
      "name": "setURI",
      "outputs": [],
      "stateMutability": "nonpayable",
      "type": "function"
    },
    {
      "inputs": [
        {
          "internalType": "bytes4",
          "name": "interfaceId",
          "type": "bytes4"
        }
      ],
      "name": "supportsInterface",
      "outputs": [
        {
          "internalType": "bool",
          "name": "",
          "type": "bool"
        }
      ],
      "stateMutability": "view",
      "type": "function"
    },
    {
      "inputs": [],
      "name": "symbol",
      "outputs": [
        {
          "internalType": "string",
          "name": "",
          "type": "string"
        }
      ],
      "stateMutability": "view",
      "type": "function"
    },
    {
      "inputs": [
        {
          "internalType": "uint256",
          "name": "",
          "type": "uint256"
        }
      ],
      "name": "tokenURI",
      "outputs": [
        {
          "internalType": "string",
          "name": "",
          "type": "string"
        }
      ],
      "stateMutability": "view",
      "type": "function"
    },
    {
      "inputs": [
        {
          "internalType": "address",
          "name": "newOwner",
          "type": "address"
        }
      ],
      "name": "transferOwnership",
      "outputs": [],
      "stateMutability": "nonpayable",
      "type": "function"
    },
    {
      "inputs": [
        {
          "internalType": "uint256",
          "name": "_id",
          "type": "uint256"
        }
      ],
      "name": "uri",
      "outputs": [
        {
          "internalType": "string",
          "name": "",
          "type": "string"
        }
      ],
      "stateMutability": "view",
      "type": "function"
    }
  ],
  "bytecode": "0x60806040523480156200001157600080fd5b5060405162004201380380620042018339818101604052810190620000379190620002bf565b604051806020016040528060008152506200005881620000b360201b60201c565b50620000796200006d620000cf60201b60201c565b620000d760201b60201c565b8160049080519060200190620000919291906200019d565b508060059080519060200190620000aa9291906200019d565b505050620004a2565b8060029080519060200190620000cb9291906200019d565b5050565b600033905090565b6000600360009054906101000a900473ffffffffffffffffffffffffffffffffffffffff16905081600360006101000a81548173ffffffffffffffffffffffffffffffffffffffff021916908373ffffffffffffffffffffffffffffffffffffffff1602179055508173ffffffffffffffffffffffffffffffffffffffff168173ffffffffffffffffffffffffffffffffffffffff167f8be0079c531659141344cd1fd0a4f28419497f9722a3daafe3b4186f6b6457e060405160405180910390a35050565b828054620001ab90620003c7565b90600052602060002090601f016020900481019282620001cf57600085556200021b565b82601f10620001ea57805160ff19168380011785556200021b565b828001600101855582156200021b579182015b828111156200021a578251825591602001919060010190620001fd565b5b5090506200022a91906200022e565b5090565b5b80821115620002495760008160009055506001016200022f565b5090565b6000620002646200025e846200035b565b62000332565b9050828152602081018484840111156200027d57600080fd5b6200028a84828562000391565b509392505050565b600082601f830112620002a457600080fd5b8151620002b68482602086016200024d565b91505092915050565b60008060408385031215620002d357600080fd5b600083015167ffffffffffffffff811115620002ee57600080fd5b620002fc8582860162000292565b925050602083015167ffffffffffffffff8111156200031a57600080fd5b620003288582860162000292565b9150509250929050565b60006200033e62000351565b90506200034c8282620003fd565b919050565b6000604051905090565b600067ffffffffffffffff82111562000379576200037862000462565b5b620003848262000491565b9050602081019050919050565b60005b83811015620003b157808201518184015260208101905062000394565b83811115620003c1576000848401525b50505050565b60006002820490506001821680620003e057607f821691505b60208210811415620003f757620003f662000433565b5b50919050565b620004088262000491565b810181811067ffffffffffffffff821117156200042a576200042962000462565b5b80604052505050565b7f4e487b7100000000000000000000000000000000000000000000000000000000600052602260045260246000fd5b7f4e487b7100000000000000000000000000000000000000000000000000000000600052604160045260246000fd5b6000601f19601f8301169050919050565b613d4f80620004b26000396000f3fe608060405234801561001057600080fd5b50600436106101155760003560e01c80638da5cb5b116100a2578063ba7aef4311610071578063ba7aef43146102de578063c87b56dd1461030e578063e985e9c51461033e578063f242432a1461036e578063f2fde38b1461038a57610115565b80638da5cb5b1461026a57806395d89b4114610288578063a22cb465146102a6578063b390c0ab146102c257610115565b80630e89341c116100e95780630e89341c146101b45780632eb2c2d6146101e45780634e1273f414610200578063650bcee014610230578063715018a61461026057610115565b8062fdd58e1461011a57806301ffc9a71461014a57806302fe53051461017a57806306fdde0314610196575b600080fd5b610134600480360381019061012f9190612ad7565b6103a6565b604051610141919061333e565b60405180910390f35b610164600480360381019061015f9190612b7f565b61046f565b6040516101719190613101565b60405180910390f35b610194600480360381019061018f9190612bd1565b610551565b005b61019e6105d9565b6040516101ab919061311c565b60405180910390f35b6101ce60048036038101906101c99190612c12565b610667565b6040516101db919061311c565b60405180910390f35b6101fe60048036038101906101f99190612867565b61070c565b005b61021a60048036038101906102159190612b13565b6107ad565b60405161022791906130a8565b60405180910390f35b61024a600480360381019061024591906129b5565b61095e565b60405161025791906130a8565b60405180910390f35b610268610b1d565b005b610272610ba5565b60405161027f9190612fcb565b60405180910390f35b610290610bcf565b60405161029d919061311c565b60405180910390f35b6102c060048036038101906102bb9190612a34565b610c5d565b005b6102dc60048036038101906102d79190612c3b565b610c73565b005b6102f860048036038101906102f39190612a70565b610ce2565b604051610305919061333e565b60405180910390f35b61032860048036038101906103239190612c12565b610d2c565b604051610335919061311c565b60405180910390f35b6103586004803603810190610353919061282b565b610dcc565b6040516103659190613101565b60405180910390f35b61038860048036038101906103839190612926565b610e60565b005b6103a4600480360381019061039f9190612802565b610f01565b005b60008073ffffffffffffffffffffffffffffffffffffffff168373ffffffffffffffffffffffffffffffffffffffff161415610417576040517f08c379a000000000000000000000000000000000000000000000000000000000815260040161040e9061317e565b60405180910390fd5b60008083815260200190815260200160002060008473ffffffffffffffffffffffffffffffffffffffff1673ffffffffffffffffffffffffffffffffffffffff16815260200190815260200160002054905092915050565b60007fd9b67a26000000000000000000000000000000000000000000000000000000007bffffffffffffffffffffffffffffffffffffffffffffffffffffffff1916827bffffffffffffffffffffffffffffffffffffffffffffffffffffffff1916148061053a57507f0e89341c000000000000000000000000000000000000000000000000000000007bffffffffffffffffffffffffffffffffffffffffffffffffffffffff1916827bffffffffffffffffffffffffffffffffffffffffffffffffffffffff1916145b8061054a575061054982610ff9565b5b9050919050565b610559611063565b73ffffffffffffffffffffffffffffffffffffffff16610577610ba5565b73ffffffffffffffffffffffffffffffffffffffff16146105cd576040517f08c379a00000000000000000000000000000000000000000000000000000000081526004016105c49061327e565b60405180910390fd5b6105d68161106b565b50565b600480546105e69061360a565b80601f01602080910402602001604051908101604052809291908181526020018280546106129061360a565b801561065f5780601f106106345761010080835404028352916020019161065f565b820191906000526020600020905b81548152906001019060200180831161064257829003601f168201915b505050505081565b60606007600083815260200190815260200160002080546106879061360a565b80601f01602080910402602001604051908101604052809291908181526020018280546106b39061360a565b80156107005780601f106106d557610100808354040283529160200191610700565b820191906000526020600020905b8154815290600101906020018083116106e357829003601f168201915b50505050509050919050565b610714611063565b73ffffffffffffffffffffffffffffffffffffffff168573ffffffffffffffffffffffffffffffffffffffff16148061075a575061075985610754611063565b610dcc565b5b610799576040517f08c379a00000000000000000000000000000000000000000000000000000000081526004016107909061321e565b60405180910390fd5b6107a68585858585611085565b5050505050565b606081518351146107f3576040517f08c379a00000000000000000000000000000000000000000000000000000000081526004016107ea906132de565b60405180910390fd5b6000835167ffffffffffffffff811115610836577f4e487b7100000000000000000000000000000000000000000000000000000000600052604160045260246000fd5b6040519080825280602002602001820160405280156108645781602001602082028036833780820191505090505b50905060005b8451811015610953576108fd8582815181106108af577f4e487b7100000000000000000000000000000000000000000000000000000000600052603260045260246000fd5b60200260200101518583815181106108f0577f4e487b7100000000000000000000000000000000000000000000000000000000600052603260045260246000fd5b60200260200101516103a6565b828281518110610936577f4e487b7100000000000000000000000000000000000000000000000000000000600052603260045260246000fd5b6020026020010181815250508061094c9061366d565b905061086a565b508091505092915050565b60606000825167ffffffffffffffff8111156109a3577f4e487b7100000000000000000000000000000000000000000000000000000000600052604160045260246000fd5b6040519080825280602002602001820160405280156109d15781602001602082028036833780820191505090505b50905060005b8351811015610a4c576109ea60066113f3565b6109f46006611409565b828281518110610a2d577f4e487b7100000000000000000000000000000000000000000000000000000000600052603260045260246000fd5b6020026020010181815250508080610a449061366d565b9150506109d7565b50610a6885828560405180602001604052806000815250611417565b60005b8351811015610b1157610afe828281518110610ab0577f4e487b7100000000000000000000000000000000000000000000000000000000600052603260045260246000fd5b6020026020010151868381518110610af1577f4e487b7100000000000000000000000000000000000000000000000000000000600052603260045260246000fd5b6020026020010151611690565b8080610b099061366d565b915050610a6b565b50809150509392505050565b610b25611063565b73ffffffffffffffffffffffffffffffffffffffff16610b43610ba5565b73ffffffffffffffffffffffffffffffffffffffff1614610b99576040517f08c379a0000000000000000000000000000000000000000000000000000000008152600401610b909061327e565b60405180910390fd5b610ba360006116bc565b565b6000600360009054906101000a900473ffffffffffffffffffffffffffffffffffffffff16905090565b60058054610bdc9061360a565b80601f0160208091040260200160405190810160405280929190818152602001828054610c089061360a565b8015610c555780601f10610c2a57610100808354040283529160200191610c55565b820191906000526020600020905b815481529060010190602001808311610c3857829003601f168201915b505050505081565b610c6f610c68611063565b8383611782565b5050565b6000610c86610c80611063565b846103a6565b905060008111610ccb576040517f08c379a0000000000000000000000000000000000000000000000000000000008152600401610cc29061329e565b60405180910390fd5b610cdd610cd6611063565b84846118ef565b505050565b6000610cee60066113f3565b6000610cfa6006611409565b9050610d1785828560405180602001604052806000815250611b36565b610d218185611690565b809150509392505050565b60076020528060005260406000206000915090508054610d4b9061360a565b80601f0160208091040260200160405190810160405280929190818152602001828054610d779061360a565b8015610dc45780601f10610d9957610100808354040283529160200191610dc4565b820191906000526020600020905b815481529060010190602001808311610da757829003601f168201915b505050505081565b6000600160008473ffffffffffffffffffffffffffffffffffffffff1673ffffffffffffffffffffffffffffffffffffffff16815260200190815260200160002060008373ffffffffffffffffffffffffffffffffffffffff1673ffffffffffffffffffffffffffffffffffffffff16815260200190815260200160002060009054906101000a900460ff16905092915050565b610e68611063565b73ffffffffffffffffffffffffffffffffffffffff168573ffffffffffffffffffffffffffffffffffffffff161480610eae5750610ead85610ea8611063565b610dcc565b5b610eed576040517f08c379a0000000000000000000000000000000000000000000000000000000008152600401610ee4906131de565b60405180910390fd5b610efa8585858585611ce7565b5050505050565b610f09611063565b73ffffffffffffffffffffffffffffffffffffffff16610f27610ba5565b73ffffffffffffffffffffffffffffffffffffffff1614610f7d576040517f08c379a0000000000000000000000000000000000000000000000000000000008152600401610f749061327e565b60405180910390fd5b600073ffffffffffffffffffffffffffffffffffffffff168173ffffffffffffffffffffffffffffffffffffffff161415610fed576040517f08c379a0000000000000000000000000000000000000000000000000000000008152600401610fe49061319e565b60405180910390fd5b610ff6816116bc565b50565b60007f01ffc9a7000000000000000000000000000000000000000000000000000000007bffffffffffffffffffffffffffffffffffffffffffffffffffffffff1916827bffffffffffffffffffffffffffffffffffffffffffffffffffffffff1916149050919050565b600033905090565b806002908051906020019061108192919061244a565b5050565b81518351146110c9576040517f08c379a00000000000000000000000000000000000000000000000000000000081526004016110c0906132fe565b60405180910390fd5b600073ffffffffffffffffffffffffffffffffffffffff168473ffffffffffffffffffffffffffffffffffffffff161415611139576040517f08c379a0000000000000000000000000000000000000000000000000000000008152600401611130906131fe565b60405180910390fd5b6000611143611063565b9050611153818787878787611f83565b60005b845181101561135057600085828151811061119a577f4e487b7100000000000000000000000000000000000000000000000000000000600052603260045260246000fd5b6020026020010151905060008583815181106111df577f4e487b7100000000000000000000000000000000000000000000000000000000600052603260045260246000fd5b60200260200101519050600080600084815260200190815260200160002060008b73ffffffffffffffffffffffffffffffffffffffff1673ffffffffffffffffffffffffffffffffffffffff16815260200190815260200160002054905081811015611280576040517f08c379a00000000000000000000000000000000000000000000000000000000081526004016112779061325e565b60405180910390fd5b81810360008085815260200190815260200160002060008c73ffffffffffffffffffffffffffffffffffffffff1673ffffffffffffffffffffffffffffffffffffffff168152602001908152602001600020819055508160008085815260200190815260200160002060008b73ffffffffffffffffffffffffffffffffffffffff1673ffffffffffffffffffffffffffffffffffffffff168152602001908152602001600020600082825461133591906134fe565b92505081905550505050806113499061366d565b9050611156565b508473ffffffffffffffffffffffffffffffffffffffff168673ffffffffffffffffffffffffffffffffffffffff168273ffffffffffffffffffffffffffffffffffffffff167f4a39dc06d4c0dbc64b70af90fd698a233a518aa5d07e595d983b8c0526c8f7fb87876040516113c79291906130ca565b60405180910390a46113dd818787878787611f8b565b6113eb818787878787611f93565b505050505050565b6001816000016000828254019250508190555050565b600081600001549050919050565b600073ffffffffffffffffffffffffffffffffffffffff168473ffffffffffffffffffffffffffffffffffffffff161415611487576040517f08c379a000000000000000000000000000000000000000000000000000000000815260040161147e9061331e565b60405180910390fd5b81518351146114cb576040517f08c379a00000000000000000000000000000000000000000000000000000000081526004016114c2906132fe565b60405180910390fd5b60006114d5611063565b90506114e681600087878787611f83565b60005b84518110156115eb5783818151811061152b577f4e487b7100000000000000000000000000000000000000000000000000000000600052603260045260246000fd5b602002602001015160008087848151811061156f577f4e487b7100000000000000000000000000000000000000000000000000000000600052603260045260246000fd5b6020026020010151815260200190815260200160002060008873ffffffffffffffffffffffffffffffffffffffff1673ffffffffffffffffffffffffffffffffffffffff16815260200190815260200160002060008282546115d191906134fe565b9250508190555080806115e39061366d565b9150506114e9565b508473ffffffffffffffffffffffffffffffffffffffff16600073ffffffffffffffffffffffffffffffffffffffff168273ffffffffffffffffffffffffffffffffffffffff167f4a39dc06d4c0dbc64b70af90fd698a233a518aa5d07e595d983b8c0526c8f7fb87876040516116639291906130ca565b60405180910390a461167a81600087878787611f8b565b61168981600087878787611f93565b5050505050565b806007600084815260200190815260200160002090805190602001906116b792919061244a565b505050565b6000600360009054906101000a900473ffffffffffffffffffffffffffffffffffffffff16905081600360006101000a81548173ffffffffffffffffffffffffffffffffffffffff021916908373ffffffffffffffffffffffffffffffffffffffff1602179055508173ffffffffffffffffffffffffffffffffffffffff168173ffffffffffffffffffffffffffffffffffffffff167f8be0079c531659141344cd1fd0a4f28419497f9722a3daafe3b4186f6b6457e060405160405180910390a35050565b8173ffffffffffffffffffffffffffffffffffffffff168373ffffffffffffffffffffffffffffffffffffffff1614156117f1576040517f08c379a00000000000000000000000000000000000000000000000000000000081526004016117e8906132be565b60405180910390fd5b80600160008573ffffffffffffffffffffffffffffffffffffffff1673ffffffffffffffffffffffffffffffffffffffff16815260200190815260200160002060008473ffffffffffffffffffffffffffffffffffffffff1673ffffffffffffffffffffffffffffffffffffffff16815260200190815260200160002060006101000a81548160ff0219169083151502179055508173ffffffffffffffffffffffffffffffffffffffff168373ffffffffffffffffffffffffffffffffffffffff167f17307eab39ab6107e8899845ad3d59bd9653f200f220920489ca2b5937696c31836040516118e29190613101565b60405180910390a3505050565b600073ffffffffffffffffffffffffffffffffffffffff168373ffffffffffffffffffffffffffffffffffffffff16141561195f576040517f08c379a00000000000000000000000000000000000000000000000000000000081526004016119569061323e565b60405180910390fd5b6000611969611063565b905060006119768461217a565b905060006119838461217a565b90506119a383876000858560405180602001604052806000815250611f83565b600080600087815260200190815260200160002060008873ffffffffffffffffffffffffffffffffffffffff1673ffffffffffffffffffffffffffffffffffffffff16815260200190815260200160002054905084811015611a3a576040517f08c379a0000000000000000000000000000000000000000000000000000000008152600401611a31906131be565b60405180910390fd5b84810360008088815260200190815260200160002060008973ffffffffffffffffffffffffffffffffffffffff1673ffffffffffffffffffffffffffffffffffffffff16815260200190815260200160002081905550600073ffffffffffffffffffffffffffffffffffffffff168773ffffffffffffffffffffffffffffffffffffffff168573ffffffffffffffffffffffffffffffffffffffff167fc3d58168c5ae7397731d063d5bbf3d657854427343f4c083240f7aacaa2d0f628989604051611b07929190613359565b60405180910390a4611b2d84886000868660405180602001604052806000815250611f8b565b50505050505050565b600073ffffffffffffffffffffffffffffffffffffffff168473ffffffffffffffffffffffffffffffffffffffff161415611ba6576040517f08c379a0000000000000000000000000000000000000000000000000000000008152600401611b9d9061331e565b60405180910390fd5b6000611bb0611063565b90506000611bbd8561217a565b90506000611bca8561217a565b9050611bdb83600089858589611f83565b8460008088815260200190815260200160002060008973ffffffffffffffffffffffffffffffffffffffff1673ffffffffffffffffffffffffffffffffffffffff1681526020019081526020016000206000828254611c3a91906134fe565b925050819055508673ffffffffffffffffffffffffffffffffffffffff16600073ffffffffffffffffffffffffffffffffffffffff168473ffffffffffffffffffffffffffffffffffffffff167fc3d58168c5ae7397731d063d5bbf3d657854427343f4c083240f7aacaa2d0f628989604051611cb8929190613359565b60405180910390a4611ccf83600089858589611f8b565b611cde83600089898989612240565b50505050505050565b600073ffffffffffffffffffffffffffffffffffffffff168473ffffffffffffffffffffffffffffffffffffffff161415611d57576040517f08c379a0000000000000000000000000000000000000000000000000000000008152600401611d4e906131fe565b60405180910390fd5b6000611d61611063565b90506000611d6e8561217a565b90506000611d7b8561217a565b9050611d8b838989858589611f83565b600080600088815260200190815260200160002060008a73ffffffffffffffffffffffffffffffffffffffff1673ffffffffffffffffffffffffffffffffffffffff16815260200190815260200160002054905085811015611e22576040517f08c379a0000000000000000000000000000000000000000000000000000000008152600401611e199061325e565b60405180910390fd5b85810360008089815260200190815260200160002060008b73ffffffffffffffffffffffffffffffffffffffff1673ffffffffffffffffffffffffffffffffffffffff168152602001908152602001600020819055508560008089815260200190815260200160002060008a73ffffffffffffffffffffffffffffffffffffffff1673ffffffffffffffffffffffffffffffffffffffff1681526020019081526020016000206000828254611ed791906134fe565b925050819055508773ffffffffffffffffffffffffffffffffffffffff168973ffffffffffffffffffffffffffffffffffffffff168573ffffffffffffffffffffffffffffffffffffffff167fc3d58168c5ae7397731d063d5bbf3d657854427343f4c083240f7aacaa2d0f628a8a604051611f54929190613359565b60405180910390a4611f6a848a8a86868a611f8b565b611f78848a8a8a8a8a612240565b505050505050505050565b505050505050565b505050505050565b611fb28473ffffffffffffffffffffffffffffffffffffffff16612427565b15612172578373ffffffffffffffffffffffffffffffffffffffff1663bc197c8187878686866040518663ffffffff1660e01b8152600401611ff8959493929190612fe6565b602060405180830381600087803b15801561201257600080fd5b505af192505050801561204357506040513d601f19601f820116820180604052508101906120409190612ba8565b60015b6120e95761204f613743565b806308c379a014156120ac5750612064613c27565b8061206f57506120ae565b806040517f08c379a00000000000000000000000000000000000000000000000000000000081526004016120a3919061311c565b60405180910390fd5b505b6040517f08c379a00000000000000000000000000000000000000000000000000000000081526004016120e09061313e565b60405180910390fd5b63bc197c8160e01b7bffffffffffffffffffffffffffffffffffffffffffffffffffffffff1916817bffffffffffffffffffffffffffffffffffffffffffffffffffffffff191614612170576040517f08c379a00000000000000000000000000000000000000000000000000000000081526004016121679061315e565b60405180910390fd5b505b505050505050565b60606000600167ffffffffffffffff8111156121bf577f4e487b7100000000000000000000000000000000000000000000000000000000600052604160045260246000fd5b6040519080825280602002602001820160405280156121ed5781602001602082028036833780820191505090505b509050828160008151811061222b577f4e487b7100000000000000000000000000000000000000000000000000000000600052603260045260246000fd5b60200260200101818152505080915050919050565b61225f8473ffffffffffffffffffffffffffffffffffffffff16612427565b1561241f578373ffffffffffffffffffffffffffffffffffffffff1663f23a6e6187878686866040518663ffffffff1660e01b81526004016122a595949392919061304e565b602060405180830381600087803b1580156122bf57600080fd5b505af19250505080156122f057506040513d601f19601f820116820180604052508101906122ed9190612ba8565b60015b612396576122fc613743565b806308c379a014156123595750612311613c27565b8061231c575061235b565b806040517f08c379a0000000000000000000000000000000000000000000000000000000008152600401612350919061311c565b60405180910390fd5b505b6040517f08c379a000000000000000000000000000000000000000000000000000000000815260040161238d9061313e565b60405180910390fd5b63f23a6e6160e01b7bffffffffffffffffffffffffffffffffffffffffffffffffffffffff1916817bffffffffffffffffffffffffffffffffffffffffffffffffffffffff19161461241d576040517f08c379a00000000000000000000000000000000000000000000000000000000081526004016124149061315e565b60405180910390fd5b505b505050505050565b6000808273ffffffffffffffffffffffffffffffffffffffff163b119050919050565b8280546124569061360a565b90600052602060002090601f01602090048101928261247857600085556124bf565b82601f1061249157805160ff19168380011785556124bf565b828001600101855582156124bf579182015b828111156124be5782518255916020019190600101906124a3565b5b5090506124cc91906124d0565b5090565b5b808211156124e95760008160009055506001016124d1565b5090565b60006125006124fb846133a7565b613382565b9050808382526020820190508285602086028201111561251f57600080fd5b60005b8581101561254f578161253588826126c7565b845260208401935060208301925050600181019050612522565b5050509392505050565b600061256c612567846133d3565b613382565b9050808382526020820190508285602086028201111561258b57600080fd5b60005b858110156125d557813567ffffffffffffffff8111156125ad57600080fd5b8086016125ba89826127c3565b8552602085019450602084019350505060018101905061258e565b5050509392505050565b60006125f26125ed846133ff565b613382565b9050808382526020820190508285602086028201111561261157600080fd5b60005b85811015612641578161262788826127ed565b845260208401935060208301925050600181019050612614565b5050509392505050565b600061265e6126598461342b565b613382565b90508281526020810184848401111561267657600080fd5b6126818482856135c8565b509392505050565b600061269c6126978461345c565b613382565b9050828152602081018484840111156126b457600080fd5b6126bf8482856135c8565b509392505050565b6000813590506126d681613cbd565b92915050565b600082601f8301126126ed57600080fd5b81356126fd8482602086016124ed565b91505092915050565b600082601f83011261271757600080fd5b8135612727848260208601612559565b91505092915050565b600082601f83011261274157600080fd5b81356127518482602086016125df565b91505092915050565b60008135905061276981613cd4565b92915050565b60008135905061277e81613ceb565b92915050565b60008151905061279381613ceb565b92915050565b600082601f8301126127aa57600080fd5b81356127ba84826020860161264b565b91505092915050565b600082601f8301126127d457600080fd5b81356127e4848260208601612689565b91505092915050565b6000813590506127fc81613d02565b92915050565b60006020828403121561281457600080fd5b6000612822848285016126c7565b91505092915050565b6000806040838503121561283e57600080fd5b600061284c858286016126c7565b925050602061285d858286016126c7565b9150509250929050565b600080600080600060a0868803121561287f57600080fd5b600061288d888289016126c7565b955050602061289e888289016126c7565b945050604086013567ffffffffffffffff8111156128bb57600080fd5b6128c788828901612730565b935050606086013567ffffffffffffffff8111156128e457600080fd5b6128f088828901612730565b925050608086013567ffffffffffffffff81111561290d57600080fd5b61291988828901612799565b9150509295509295909350565b600080600080600060a0868803121561293e57600080fd5b600061294c888289016126c7565b955050602061295d888289016126c7565b945050604061296e888289016127ed565b935050606061297f888289016127ed565b925050608086013567ffffffffffffffff81111561299c57600080fd5b6129a888828901612799565b9150509295509295909350565b6000806000606084860312156129ca57600080fd5b60006129d8868287016126c7565b935050602084013567ffffffffffffffff8111156129f557600080fd5b612a0186828701612706565b925050604084013567ffffffffffffffff811115612a1e57600080fd5b612a2a86828701612730565b9150509250925092565b60008060408385031215612a4757600080fd5b6000612a55858286016126c7565b9250506020612a668582860161275a565b9150509250929050565b600080600060608486031215612a8557600080fd5b6000612a93868287016126c7565b935050602084013567ffffffffffffffff811115612ab057600080fd5b612abc868287016127c3565b9250506040612acd868287016127ed565b9150509250925092565b60008060408385031215612aea57600080fd5b6000612af8858286016126c7565b9250506020612b09858286016127ed565b9150509250929050565b60008060408385031215612b2657600080fd5b600083013567ffffffffffffffff811115612b4057600080fd5b612b4c858286016126dc565b925050602083013567ffffffffffffffff811115612b6957600080fd5b612b7585828601612730565b9150509250929050565b600060208284031215612b9157600080fd5b6000612b9f8482850161276f565b91505092915050565b600060208284031215612bba57600080fd5b6000612bc884828501612784565b91505092915050565b600060208284031215612be357600080fd5b600082013567ffffffffffffffff811115612bfd57600080fd5b612c09848285016127c3565b91505092915050565b600060208284031215612c2457600080fd5b6000612c32848285016127ed565b91505092915050565b60008060408385031215612c4e57600080fd5b6000612c5c858286016127ed565b9250506020612c6d858286016127ed565b9150509250929050565b6000612c838383612fad565b60208301905092915050565b612c9881613554565b82525050565b6000612ca98261349d565b612cb381856134cb565b9350612cbe8361348d565b8060005b83811015612cef578151612cd68882612c77565b9750612ce1836134be565b925050600181019050612cc2565b5085935050505092915050565b612d0581613566565b82525050565b6000612d16826134a8565b612d2081856134dc565b9350612d308185602086016135d7565b612d3981613765565b840191505092915050565b6000612d4f826134b3565b612d5981856134ed565b9350612d698185602086016135d7565b612d7281613765565b840191505092915050565b6000612d8a6034836134ed565b9150612d9582613783565b604082019050919050565b6000612dad6028836134ed565b9150612db8826137d2565b604082019050919050565b6000612dd0602b836134ed565b9150612ddb82613821565b604082019050919050565b6000612df36026836134ed565b9150612dfe82613870565b604082019050919050565b6000612e166024836134ed565b9150612e21826138bf565b604082019050919050565b6000612e396029836134ed565b9150612e448261390e565b604082019050919050565b6000612e5c6025836134ed565b9150612e678261395d565b604082019050919050565b6000612e7f6032836134ed565b9150612e8a826139ac565b604082019050919050565b6000612ea26023836134ed565b9150612ead826139fb565b604082019050919050565b6000612ec5602a836134ed565b9150612ed082613a4a565b604082019050919050565b6000612ee86020836134ed565b9150612ef382613a99565b602082019050919050565b6000612f0b6020836134ed565b9150612f1682613ac2565b602082019050919050565b6000612f2e6029836134ed565b9150612f3982613aeb565b604082019050919050565b6000612f516029836134ed565b9150612f5c82613b3a565b604082019050919050565b6000612f746028836134ed565b9150612f7f82613b89565b604082019050919050565b6000612f976021836134ed565b9150612fa282613bd8565b604082019050919050565b612fb6816135be565b82525050565b612fc5816135be565b82525050565b6000602082019050612fe06000830184612c8f565b92915050565b600060a082019050612ffb6000830188612c8f565b6130086020830187612c8f565b818103604083015261301a8186612c9e565b9050818103606083015261302e8185612c9e565b905081810360808301526130428184612d0b565b90509695505050505050565b600060a0820190506130636000830188612c8f565b6130706020830187612c8f565b61307d6040830186612fbc565b61308a6060830185612fbc565b818103608083015261309c8184612d0b565b90509695505050505050565b600060208201905081810360008301526130c28184612c9e565b905092915050565b600060408201905081810360008301526130e48185612c9e565b905081810360208301526130f88184612c9e565b90509392505050565b60006020820190506131166000830184612cfc565b92915050565b600060208201905081810360008301526131368184612d44565b905092915050565b6000602082019050818103600083015261315781612d7d565b9050919050565b6000602082019050818103600083015261317781612da0565b9050919050565b6000602082019050818103600083015261319781612dc3565b9050919050565b600060208201905081810360008301526131b781612de6565b9050919050565b600060208201905081810360008301526131d781612e09565b9050919050565b600060208201905081810360008301526131f781612e2c565b9050919050565b6000602082019050818103600083015261321781612e4f565b9050919050565b6000602082019050818103600083015261323781612e72565b9050919050565b6000602082019050818103600083015261325781612e95565b9050919050565b6000602082019050818103600083015261327781612eb8565b9050919050565b6000602082019050818103600083015261329781612edb565b9050919050565b600060208201905081810360008301526132b781612efe565b9050919050565b600060208201905081810360008301526132d781612f21565b9050919050565b600060208201905081810360008301526132f781612f44565b9050919050565b6000602082019050818103600083015261331781612f67565b9050919050565b6000602082019050818103600083015261333781612f8a565b9050919050565b60006020820190506133536000830184612fbc565b92915050565b600060408201905061336e6000830185612fbc565b61337b6020830184612fbc565b9392505050565b600061338c61339d565b9050613398828261363c565b919050565b6000604051905090565b600067ffffffffffffffff8211156133c2576133c1613714565b5b602082029050602081019050919050565b600067ffffffffffffffff8211156133ee576133ed613714565b5b602082029050602081019050919050565b600067ffffffffffffffff82111561341a57613419613714565b5b602082029050602081019050919050565b600067ffffffffffffffff82111561344657613445613714565b5b61344f82613765565b9050602081019050919050565b600067ffffffffffffffff82111561347757613476613714565b5b61348082613765565b9050602081019050919050565b6000819050602082019050919050565b600081519050919050565b600081519050919050565b600081519050919050565b6000602082019050919050565b600082825260208201905092915050565b600082825260208201905092915050565b600082825260208201905092915050565b6000613509826135be565b9150613514836135be565b9250827fffffffffffffffffffffffffffffffffffffffffffffffffffffffffffffffff03821115613549576135486136b6565b5b828201905092915050565b600061355f8261359e565b9050919050565b60008115159050919050565b60007fffffffff0000000000000000000000000000000000000000000000000000000082169050919050565b600073ffffffffffffffffffffffffffffffffffffffff82169050919050565b6000819050919050565b82818337600083830152505050565b60005b838110156135f55780820151818401526020810190506135da565b83811115613604576000848401525b50505050565b6000600282049050600182168061362257607f821691505b60208210811415613636576136356136e5565b5b50919050565b61364582613765565b810181811067ffffffffffffffff8211171561366457613663613714565b5b80604052505050565b6000613678826135be565b91507fffffffffffffffffffffffffffffffffffffffffffffffffffffffffffffffff8214156136ab576136aa6136b6565b5b600182019050919050565b7f4e487b7100000000000000000000000000000000000000000000000000000000600052601160045260246000fd5b7f4e487b7100000000000000000000000000000000000000000000000000000000600052602260045260246000fd5b7f4e487b7100000000000000000000000000000000000000000000000000000000600052604160045260246000fd5b600060033d11156137625760046000803e61375f600051613776565b90505b90565b6000601f19601f8301169050919050565b60008160e01c9050919050565b7f455243313135353a207472616e7366657220746f206e6f6e204552433131353560008201527f526563656976657220696d706c656d656e746572000000000000000000000000602082015250565b7f455243313135353a204552433131353552656365697665722072656a6563746560008201527f6420746f6b656e73000000000000000000000000000000000000000000000000602082015250565b7f455243313135353a2062616c616e636520717565727920666f7220746865207a60008201527f65726f2061646472657373000000000000000000000000000000000000000000602082015250565b7f4f776e61626c653a206e6577206f776e657220697320746865207a65726f206160008201527f6464726573730000000000000000000000000000000000000000000000000000602082015250565b7f455243313135353a206275726e20616d6f756e7420657863656564732062616c60008201527f616e636500000000000000000000000000000000000000000000000000000000602082015250565b7f455243313135353a2063616c6c6572206973206e6f74206f776e6572206e6f7260008201527f20617070726f7665640000000000000000000000000000000000000000000000602082015250565b7f455243313135353a207472616e7366657220746f20746865207a65726f20616460008201527f6472657373000000000000000000000000000000000000000000000000000000602082015250565b7f455243313135353a207472616e736665722063616c6c6572206973206e6f742060008201527f6f776e6572206e6f7220617070726f7665640000000000000000000000000000602082015250565b7f455243313135353a206275726e2066726f6d20746865207a65726f206164647260008201527f6573730000000000000000000000000000000000000000000000000000000000602082015250565b7f455243313135353a20696e73756666696369656e742062616c616e636520666f60008201527f72207472616e7366657200000000000000000000000000000000000000000000602082015250565b7f4f776e61626c653a2063616c6c6572206973206e6f7420746865206f776e6572600082015250565b7f455243313135353a2043616c6c6572206973206e6f7420746865206f776e6572600082015250565b7f455243313135353a2073657474696e6720617070726f76616c2073746174757360008201527f20666f722073656c660000000000000000000000000000000000000000000000602082015250565b7f455243313135353a206163636f756e747320616e6420696473206c656e67746860008201527f206d69736d617463680000000000000000000000000000000000000000000000602082015250565b7f455243313135353a2069647320616e6420616d6f756e7473206c656e6774682060008201527f6d69736d61746368000000000000000000000000000000000000000000000000602082015250565b7f455243313135353a206d696e7420746f20746865207a65726f2061646472657360008201527f7300000000000000000000000000000000000000000000000000000000000000602082015250565b600060443d1015613c3757613cba565b613c3f61339d565b60043d036004823e80513d602482011167ffffffffffffffff82111715613c67575050613cba565b808201805167ffffffffffffffff811115613c855750505050613cba565b80602083010160043d038501811115613ca2575050505050613cba565b613cb18260200185018661363c565b82955050505050505b90565b613cc681613554565b8114613cd157600080fd5b50565b613cdd81613566565b8114613ce857600080fd5b50565b613cf481613572565b8114613cff57600080fd5b50565b613d0b816135be565b8114613d1657600080fd5b5056fea2646970667358221220d8ef2401b7168e5718fec7b66d44b38e5fef07712ec4173adc985a8017305eb864736f6c63430008040033",
  "linkReferences": {},
  "deployedLinkReferences": {}
}